:200000000C9488020C94CF020C94EA020C94CF020C94CF020C94CF020C94CF020C94CF0284
:200020000C94CF020C94CF020C94CF020C94CF020C94CF020C94CF020C94A41B0C94CF024A
:200040000C94CF020C94CF020C94CF020C94CF020C94CF020C94CF020C94CF020C94CF0218
:200060000C94CF020C94CF0235001E001F0020002100220023002400250026002700AE0062
:200080002B0014001A000800150017001C0018000C00120013002A002900040016000700FA
:2000A00009000A000B000D000E000F0033003400E1001D001B000600190005001100100033
:2000C0003600370038002800E000E300E200045101512C002C0002515000510052004F001A
:2000E000AA00A90000000000000000000100010001000100010001000100010001002D0077
:200100002E00010001003A003B003C003D0001000100010001002F00300031004C003E00A3
:200120003F00400041000100010001000100010001000100010042004300440045000100E8
:20014000010001000100010001000100010001000100010001000100010003514A004E00A6
:200160004B004D002B032B0100000000000000000100010001000100010001000100010085
:2001800001000100010001000100010001000100010001000100010001000100010001004F
:2001A00001000100010001000100010001000100010001000100010001000100010001002F
:2001C0000100010001000100010001000100010001000100010001000351010001000100BC
:2001E000010001000100010050014F01000000000000000001000100010001000100010054
:200200000100010001000100010001000100010001000100010001000100010001000100CE
:200220000100010001000100010001000100010001000100010001000100010001000100AE
:2002400001000100010001000100010001000100010001000100010001000100010001008E
:200260000100010001000100E05C015C1D011C0100000000000000000100010001000100A2
:2002800001000100010001000100010001000100010001000100010001000100010001004E
:2002A00001000100010001000100010001000100010001000100010001000100010001002E
:2002C00001000100010001000100010001000100010001000100010001000100010001000E
:2002E00001000100010001000100010001000100FB00FC00000000000000000000000000FF
:20030000000000002A2B280000000000000000000000000000000029000000002C1E342099
:20032000212224342627252E362D3738271E1F202122232425263333362E37381F040506F0
:200340000708090A0B0C0D0E0F101112131415161718191A1B1C1D2F3130232D35040506DB
:200360000708090A0B0C0D0E0F101112131415161718191A1B1C1D2F3130354C00000000CE
:20038000000000000000000000000000000000007E0F00D4FFFFFFC70000007809025B005A
:2003A000030100A0FA09040000010301010009210101000122400007058103080001090457
:2003C0000100020300000009210101000122220007058403080001070504030800010904E1
:2003E00002000103000000092101010001228100070583030800011201100100000008C898
:2004000077010000000102000114034600720061006D00650077006F0072006B0000000893
:20042000033700630038000000040309040660FF0961A1010962150026FF0095207508810A
:20044000020963150026FF00952075089102C005010902A10185020901A100050919012939
:2004600005150025019505750181029501750381030501093009311581257F9502750881CF
:200480000609381581257F950175088106050C0A38021581257F950175088106C0C0050192
:2004A0000980A101850319012AB700150126B700950175108100C0050C0901A101850419E0
:2004C000012AA002150126A002950175108100C005010906A101050719E029E7150025010E
:2004E0009508750181029501750881030507190029FF150026FF0095067508810005081989
:20050000012905950575019102950175039103C011241FBECFEFD8E0DEBFCDBF04B603FE3B
:2005200027C080916C0390916D03A0916E03B0916F038730904BA740B04BD1F410926C0324
:2005400010926D0310926E0310926F0314BE84B7877F84BF0FB6F894A89580916000886124
:2005600080936000109260000FBEE0E0F8E3099511E0A0E0B1E0E4EAF5E402C005900D9261
:20058000AA39B107D9F723E0AAE9B1E001C01D92AC36B207E1F70E94B81E0C949F220C946D
:2005A0000000A82FB92F80E090E041E050EA609530E009C02D9182279795879510F0842729
:2005C0009527305EC8F36F5FA8F30895EADF8D939D930895CF93CFB7CF93DF93C3954B9B60
:2005E000E9F74B9B10C04B9B0EC04B9B0CC04B9B0AC04B9B08C04B9B06C0C0914303C39506
:20060000C09343038EC06F93C0914203DD27C65BDC4F2F9365E54B9B03C02F916F91E1CFE6
:200620000F931F934F9320E040E15F9309B10C7003FB27F93F9350E03BE039C01C704064D7
:200640002F77012F5F5F1EC0406819B11C702F7752501FC0406409B12F770C70D1F15F5F03
:2006600000C023C0406219B12F771C7091F15F5F00C025C00C701027515012F45D5F00003E
:20068000115027952C3F19B1C8F61C700127015027952C3FC8F64227499309B10C701027AE
:2006A0004F73115027952C3FA8F64695469519B11C7079F00127015027952C3F98F66B5AEA
:2006C00060F3315009B1B0F600C012E01CBB00271CC03B503195C31BD04012E01CBB0881C9
:2006E000033C21F10B3411F120913F031981110F1213EDCF4A81441F093679F10D3211F0C3
:20070000013E29F74F7009F0042F009348033F915F914F911F910F912F916F91CCB3C1FDC4
:200720005DCFDF91CF91CFBFCF91189520914803222369F310914603112309F049C0343001
:200740000AF448C03093460320934103109142033BE0311B309342033DC000914603013033
:20076000BCF50AE54F7049F43091150134FD33C000931501CCE1D3E032C0433059F04430B7
:2007800091F03091270334FD26C000932703C8E2D3E025C03091600334FD1DC000936003AF
:2007A000C1E6D3E01CC03091330334FD14C000933303C4E3D3E013C0052710E000C0000035
:2007C0000BB91AC0052710E0221F1DC010E021C04AE502C032ED432FC4E1D0E032E01AB1BC
:2007E0001C605B9A0BB11AB95CE020E865E320FF05270BB9279517951C3FF0F66695B8F70B
:20080000B1F720FF05270BB9279517951C3FD0F62795179517FF052700001C3F0BB9B0F629
:2008200029913A9519F7037F10914703110FC651D0400BB911F010933F0312E01CBB086090
:200840001AB1137F402F437F54E05A95F1F70BB91AB94BB95CCFCF93DF93D82FC62F609178
:200860002A0270912B0280912C0290912D020E940D1AD1110BC041E0C11101C040E06AE0FB
:200880000E948A0BDF91CF910C94AA04DF91CF910895CF93DF939C013A9521153F4168F543
:2008A000EC01CC27D170DC01AA27B270AC01442754709C012227387094FF11C080E1CD2B20
:2008C00009F480E0AB2B09F08062452B09F08064232B09F08068FB01DF91CF91099481E0C4
:2008E000CD2B09F480E0AB2B09F08260452B09F08460232B81F38860EECFDF91CF910895D1
:20090000CF93DF93EC01805E9109089720F068EB73E1209711F46EE471E1CE010E9449042A
:200920008C2FDF91CF910C94B910CF93DF93EC010E940711CE01805E9109089720F06FEBF8
:2009400073E1209711F465E571E1CE01DF91CF910C944904CF93DF93EC010E9480048FEFFA
:2009600099EF0197F1F700C00000CE01DF91CF910C94950481E0089581E008950C94BC047B
:2009800008950C94C0041F93CF93DF9300D000D00F92CDB7DEB749835A836B833091C40159
:2009A00089819A8131111DC06623B9F02223A9F00E94C918182F682F89819A810E94721831
:2009C00069817A81812F0F900F900F900F900F90DF91CF911F910C94400C0E94A018182F5A
:2009E000EFCF0E94C91869817A81EDCFFC01262F408151816281738184810C94C304CF938B
:200A0000DF93EC0160E00E94F604BE01DF91CF910C94C104FF920F931F93CF93DF93E82FD7
:200A2000F0E0E450FD4FF490C82FC695C695C695D0E0FE01E457FC4F0491877010E0082EF3
:200A400002C0159507950A94E2F701701127C458DC4FFE01C491D0E002C0D595C7958A957C
:200A6000E2F7C170DD270115110519F081EE0E94B910209719F086EE0E94B9108F2D0E945C
:200A80003611CD2B19F086EE0E940711012B41F081EEDF91CF911F910F91FF900C940711AD
:200AA000DF91CF911F910F91FF900895EF92FF920F931F93CF93DF93EC01162F0AE088818B
:200AC000882309F454C0813009F04EC08981813099F47E0122E0E20EF11C8A810E943611E8
:200AE000E7012196812F815050F3EFE9FFE03197F1F700C00000F7CF823041F47E0182E0DE
:200B0000E80EF11C8A810E94B910EACF833041F47E01E2E0EE0EF11C8A810E940711E0CFFD
:200B2000843011F02196DDCF2A81229690E080E0AE014F5F5F4F2053330B2A30310548F0E6
:200B4000019778F2EFE9FFE03197F1F700C00000F7CF089FB001099F700D1124C901860F95
:200B6000971F2981EA01E4CF0E940A05BACFDF91CF911F910F91FF90EF90089560E00C9492
:200B800056058F929F92AF92BF92CF92DF92EF92FF920F931F936B017C0181E090E0A0E0A4
:200BA000B0E04C015D0104C0880C991CAA1CBB1C4A95D2F7B501A4014C015D0104C0880C4A
:200BC000991CAA1CBB1C2A95D2F7482959296A297B2904C0880F991FAA1FBB1F0A95D2F7F3
:200BE0008A019B010C211D212E213F21041715072607370789F48C299D29AE29BF29BC019E
:200C0000CD011F910F91FF90EF90DF90CF90BF90AF909F908F90089580959095A095B095AD
:200C20008C219D21AE21BF21EACF0F93382F262F60912A0270912B0280912C0290912D02A9
:200C4000042F432F0E94C1050F910C94B0170E94DF1B0E94601A811102C00E94041B0C9413
:200C600096080C94990808950E94DC130E9433062FEF84E39CE0215080409040E1F700C0F2
:200C800000000C94C81B0F931F93CF93DF93EC0161E00E94F6048C01BE010E94770A8823C5
:200CA00089F1BE01C8010E94BE04882359F1BE01C8010E94310F882329F1BE01C8010E9480
:200CC000770D8823F9F0BE01C8010E94C90D8823C9F0BE01C8010E94EC0E882399F08A8135
:200CE000882339F001158CE5180751F0003E1C4579F0CE01DF91CF911F910F910C94BA04E4
:200D00000E94340680E0DF91CF911F910F9108950E94041BF7CF08950C948B0681E0089587
:200D20000C948E06CF93C82F0E948C068C2FCF910C94900690E080E008950895FC01EE0F9D
:200D4000FF1FE456FC4F859194910895CF93DF930E94400C0E94BB07EC01811520E59207D1
:200D600008F042C0811530E4930708F0BDC0883E910528F5803E910508F09DC0883A910546
:200D800088F4853A910508F08FC08130910509F492C0009709F48FC0049708F08CC0D0E033
:200DA000C0E089C08F3B910508F489C0805C9109C03CD105A0F30E949E06EC017CC08115C5
:200DC000904250F4C11581E0D80708F074C0C03FD10528F3D0656FC0C11590E3D90708F046
:200DE00079C0CE019F70E7CF811525E5920758F5811534E5930708F0A6C0811542E59407A1
:200E000050F4C11581E5D80708F471C0DC2FCC27C16FD06A50C0982F969596959E0123707F
:200E20003327C115D34508F07FC0C1E0D0E002C0CC0FDD1F2A95E2F720E2929FC001112488
:200E4000C82BD92B6FC0C11589E5D807A8F4C11598E5D90708F07CC0C11526E5D20708F094
:200E60009ECF8C2F0E945208C82FD0E0DC2FCC27CC27DF71D0621FC0C1153AE5D30708F48A
:200E80006CC0CE0190568115904208F088CF8D2F8F710E94520890E0982F882788279F715D
:200EA0009C012C2BE901E6CFC55AD0E0CC5BDE4FC881D0E0D064CE01DF91CF910895C85AF1
:200EC000D0E0CC0FDD1FCA5EDE4F0990D881C02DD464F1CFCE019927D3FF03C0EC01D86C0A
:200EE000EACFEC01D06CE7CFDF70D06AE4CFCE01E4E096958795EA95E1F783702C2F2695E4
:200F00002695237090E2299F90011124382B8C2F8370C1E0D0E002C0CC0FDD1F8A95E2F790
:200F2000C22BD32BDC68C7CFC1E0D0E002C0CC0FDD1F2A95E2F730E2939FC0011124C82B3D
:200F4000D92BDA68B8CFD82FCC27C46FD06AB3CFDC2FCC27C06FD06AAECF8C2F8F700E949B
:200F6000520834E0D695C7953A95E1F7CF709C2FEC01D069A0CF82389105B1F1B0F48133AC
:200F8000910509F475C048F48932910509F469C08A32910509F473C008958533910509F46C
:200FA00059C08933910501F10895833E9105A9F138F4803E9105F9F0823E910549F10895B0
:200FC000863E9105A9F1873E9105C9F1843E910519F520911B0321FF1FC080911A0384FD25
:200FE00014C087EE90E0089520911A032370A1F080EE90E0089520911A0320FD47C030917B
:201000001B0330FF09C024FF44C090E080E004C020911A0322FDF7CF089520911A0322FDC2
:201020003BC030911B0330FDE3CF24FFF5CFEDCF20911A0323FFF0CF24FDE7CFD2CF20917C
:201040001A0323FD2CC030911B0331FFEECF84EE90E0089520911A0325FFDECF89E290E0A2
:20106000089520911A0325FFD7CF85E390E0089520911A0326FFD0CF8AE290E0089520910A
:201080001A0326FFC9CF81E390E0089589E390E0089583EE90E0089582EE90E0089586EE1D
:2010A00090E0089590911A0392FF06C0282F28712830F9F4877F846093FF06C0282F287127
:2010C0002831F1F4877E846120911B0320FF06C0382F38713830D9F4877F816021FF06C022
:2010E000282F28712831D1F4877E816194FD877E0895282F24712430F9F68B7F8860DCCFFC
:20110000282F2471243101F78B7E8861DDCF382F3171313019F78E7F8860E0CF282F2171F1
:20112000213121F78E7E8861E1CF08950C94950808950C949808E82FF0E0E55FFC4F808172
:201140000895089580EA8A95F1F70895F894E82FE295EF70F0E031A1282F2F7081E090E065
:2011600001C0880F2A95EAF7982F9095932391A392A1892B82A378940895CF93DF93CDE467
:20118000D1E089910E94A60881E0C835D807C9F780E60E94A60881E60E94A60882E60E94C0
:2011A000A60883E60E94A60884E60E94A60885E60E94A608E0E0F3E0ABE0B3E011921D9250
:2011C00083E0EB30F807D1F78BE00E946009DF91CF910C942706CF92DF92EF92FF920F9331
:2011E0001F93CF93DF93CDE4D1E000E013E0D12CEE24E394F12C8991F894E82FE295EF70FE
:20120000F0E021A18F70A70102C0440F551F8A95E2F7CA01922F982B91A392A1809589239D
:2012200082A378940E94A208E7E4F1E030E020E0C12C4191A42FA295AF70B0E090968C91CA
:2012400090E04F7002C0959587954A95E2F780FD33C08E2D022E01C0880F0A94EAF7C82A7B
:201260002F5F3F4F2630310521F7FE01319780810E94A608F8018081C81601F1C08281E029
:20128000D82A0F5F1F4FF1E0C835DF0709F0B3CF2D2D4BE06BE073E080E093E00E9461093F
:2012A0000E9431068D2DDF91CF911F910F91FF90EF90DF90CF90089580E0D1CF80E0E0CFF3
:2012C0000895FF920F931F93CF93DF93F82E092F162FD72FC42F222349F081E080939C018D
:2012E0000E947D1B90939B0180939A0180919C018823A1F080919A0190919B010E94951BA2
:20130000069760F0EF2DF02FA12FBD2FCE0FDF2FD11DEC17FD0741F410929C01DF91CF91C5
:201320001F910F91FF90089581918D93F2CF0C942B045098589A5198599A89B181704999AC
:2013400005C090E0892B80939F01089592E0FACFE0919F01EE0FEE0FE0939F0149B1842F4E
:20136000817049B141FB222720F941FF02C022E030E0822BE82BE0939F01EF70F0E0E85A8C
:20138000FE4F808190919E01890F80939E0184304CF080919D018F5F80939D0160E080E017
:2013A0000E94970980919E018D3F4CF480919D01815080939D0161E080E00E94970980910A
:2013C0009E01082E000C990B64E070E00E94282280939E01089582E290E00E945D22813211
:2013E00089F483E290E00E945D22833059F484E290E00E945D2291E0863009F090E0892F3B
:201400008170089580E0FCCFCF93C82F6FEF811161E282E290E00E946B226FEFC11163E011
:2014200083E290E00E946B226FEFC11166E084E290E0CF910C946B2280E00E94040A0C941F
:201440005A1A0895CF92DF92EF92FF9285E290E00E945D2290E0B0E0A0E0CC24D82EE92E12
:20146000FA2E86E290E00E945D22C82AFE2CED2CDC2CCC2487E290E00E945D229601282B3A
:20148000C701B901FF90EF90DF90CF900895CF92DF92EF92FF926B017C0187E290E00E9409
:2014A0006B2299278F2D7E2D6D2D86E290E00E946B22B7018827992785E290E0FF90EF90CB
:2014C000DF90CF900C946B220E94210A0E94EB0981110CC060E070E0CB010E94470A0E945F
:2014E000B80B0E94A40C81E00C94040A0895CF93FB01C281CC2309F19C0122513F452031BC
:20150000310520F582510E94B40CC0E08C2FCF91089581E00E94D61743E062E081E00E949B
:201520001506F3CF81E00E94F71743E062E081E00E941506EBCF82E0F6CF8031FFE59F071E
:2015400089F381319F45B9F3C1E0E0CF8031EFE59E07F9F281319F45C9F682E0DBCF2FEFE9
:20156000FC0120830895EF92FF920F931F93CF93DF93EC01062FE881E150E33108F05EC00E
:20158000F0E0EF55FD4D0C943C22198289E08A83602FCE01DF91CF911F910F91FF90EF9052
:2015A0000C94CA1F8981823069F0833071F08130D9F40E94891B0E9442226A837B838C83B5
:2015C0009D83E6CF0E94220AF6CF7E0122E0E20EF11C10E0812F0E949B08F70181937F01B4
:2015E0001F5F1B30B9F7D4CF602FCE010E94AF0ACFCF89818230C1F76A817B818C819D81F2
:201600000E9442220E94470AC3CF4B816A8189810E948A0B9827892798279D838C83B8CF63
:201620002C813D813227232732274B816A8189810E94A30BADCF0E94B80BAACF8FEF88834F
:20164000A7CF0E944D0C8983A3CF0E944F0C9827892798279A8389839BCF6B8170E0898197
:201660009A81AE014C5F5F4F9827892798270E94520C8ECF6B8170E089819A81AE014C5F01
:201680005F4F9827892798270E94790C81CF0E94A40C7ECF0E94780BD6CF6B8170E0898148
:2016A0009A81AE014C5F5F4F9827892798270E94F00B6ECF6B8170E089819A81AE014C5F44
:2016C0005F4F9827892798270E94160C61CF0E941C0A5ECF0E94CA1FFFEF21EE84E0F15018
:2016E00020408040E1F700C000000E94C81B50CF85E0089550E0440F551F9CE0699F400DC4
:20170000511D112494E8899F400D511D1124CA01889608950F931F93CF93DF930E947A0BBD
:201720008C010E945D22C82FD0E0DC2FCC27C80101960E945D229E01282BC901DF91CF9149
:201740001F910F9108950F931F93CF93DF93122F032F0E947A0BEC01602F0E946B22612F9F
:20176000CE010196DF91CF911F910F910C946B22AF92BF92CF92DF92EF92FF921F93CF932C
:20178000DF9388E6C82E80E0D82ED0E07601C0E014C0F50125913491412F6C2F8D2F0E9498
:2017A000A30B82E0A80EB11C1F5F163091F78CE0E80EF11CCF5FCB3019F0570110E0E9CFA9
:2017C000DF5F84E8C80ED11CD53001F7DF91CF911F91FF90EF90DF90CF90BF90AF90089518
:2017E000EF92FF920F931F93CF93DF93EC018A017C01E60EF71ECE018896CE15DF0539F4D0
:20180000DF91CF911F910F91FF90EF900895C43922E0D20740F40E945D22F80180830F5F66
:201820001F4F2196E8CFF8011082F9CFCF92DF92EF92FF920F931F93CF93DF937C016A0185
:201840008C01060F171FEC01CE018896C017D10749F4DF91CF911F910F91FF90EF90DF904D
:20186000CF900895C43922E0D20740F4FE01EE19FF09EC0DFD1D60810E946B222196E4CFC5
:20188000462F853038F47B3028F4663018F4672F0C948A0B90E080E0089580E1089584E4EB
:2018A00091E00895EF92FF920F931F93CF93DF93EC018A017C01E60EF71ECE0184549D4F4F
:2018C000CE15DF0539F4DF91CF911F910F91FF90EF900895C43421E0D20740F40E945D2222
:2018E000F80180830F5F1F4F2196E7CFF8011082F9CFCF92DF92EF92FF920F931F93CF93B6
:20190000DF937C016A018C01060F171FEC01CE0184549D4FC017D10749F4DF91CF911F91A9
:201920000F91FF90EF90DF90CF900895C43421E0D20740F4FE01EE19FF09EC0DFD1D608186
:201940000E946B222196E3CFCF93DF93CCEBD2E060E0CE010E946B222196C11584E0D807A4
:20196000B9F7DF91CF910895DF92EF92FF920F931F93CF93DF9300D000D0CDB7DEB7F82EC0
:201980008FE08F1540F08FEF93E00E945D220CEB12E08823C1F00F900F900F900F90DF91C1
:2019A000CF911F910F91FF90EF90DF900895011584E0180781F3C8010E945D22811101C013
:2019C000FA940F5F1F4FF110F2CF19821A821B821C82DD24D39478018FEFE81AF80AC8013D
:2019E0000E945D2289831A828823A9F29FEF980F933078F48A83D9820E5F1F4FC7010E94C7
:201A00005D228B83882339F2CE0101960E94BE05E2CF8701F9CF0F931F93CF93DF93C42F7C
:201A2000D22FFC0182818823C9F04093A2010E947D1B9093A1018093A00180E28C0F883063
:201A400008F050C0C77081E001C0880FCA95EAF7DF91CF911F910F910C944E111091A201EB
:201A6000141335C08091A0019091A1010E94951B883C910560F5C0E2CD0F1D17B9F080E217
:201A8000810F883040F4177081E001C0880F1A95EAF70E945511C83048F481E09D2F97708A
:201AA00001C0880F9A95EAF70E944E11802F0E943611C830B8F4D77081E001C0880FDA9512
:201AC000EAF7DF91CF911F910F910C94551180E28C0F883038F4C77081E001C0880FCA95CF
:201AE000EAF7EFCFDF91CF911F910F9108950F939C01CB01253F4CE5340759F1A8F42A3D62
:201B0000FCE53F0701F12B3D4CE53407D1F1293D3C4591F406E221EE41EE69ED7CE50E942B
:201B20000B0D80E00F910895273FFCE53F07E9F0B0F0283F3C45F9F0FC018281882339F144
:201B40001092A201EFCF07E225EE45EE6AED7CE5E6CF06E221EE40EE65EF7CE5E0CF07E274
:201B600025EE44EE66EF7CE5DACF06E221EE42EE67EF7CE5D4CF07E225EE46EE68EF7CE558
:201B8000CECF08E221E045EE6BED7CE5C8CF81E0C9CFCF93DF93EC01FB018281882309F4D9
:201BA00019C1C230FCE5DF07C0F1C6319CE5D90730F09E012C5F3C452930310570F50E9428
:201BC000731A90931B0380931A03C031ECE5DE0709F4CFC008F05BC0C8308CE5D80709F47C
:201BE000B6C088F5C430ECE5DE0709F4A8C0C0F4C2308CE5D80709F49CC080911A03826084
:201C0000C330DC4509F498C080911A0390911B030E94811A0E94DC1380E0DF91CF91089553
:201C200080911A038061C630ECE5DE0709F484C080911A038860C730DC4508F47DC0809130
:201C40001A03806279C0CC308CE5D80709F489C070F480911A038C60CA30ECE5DE0709F48F
:201C60006BC008F478C080911A038E7F65C0CE308CE5D80709F479C080911A038B7FCF30EA
:201C8000DC4508F459C080911A038F7E55C0CD3FECE5DE0709F457C030F5C3318CE5D8077F
:201CA00009F46FC078F4C131ECE5DE0709F465C0C231DC4509F0A8CF0E94DC1380911A037F
:201CC0008F773AC0C5318CE5D80709F462C008F476C080911B038160CC3FDC4509F094CFD5
:201CE00080931B0391CFC130FDE5DF0709F44DC088F480911B038D7FCF3F9CE5D90781F3F6
:201D000080911B038E7FC115DD4550F380911B038360E6CFC330FDE5DF0709F459C008F4B8
:201D200044C080E0C430DD4509F06ECF0E94061B6BCF80911A03816080931A0365CF809172
:201D40001A038460F9CF80911B038260C9CF80911A038064F1CF0E94DC1380911A03806898
:201D6000EBCF80911A038D7FE7CF80911A03877FE3CF80911A038F7DDFCF80911A038F7BB3
:201D8000DBCF80911A03837FD7CF80911B038C7FA7CF80911A0382FB992790F921E0922765
:201DA00090FB82F990FB83F9C7CF80911B03982F909591708E7F892B90FB81F991CF0E949C
:201DC000DC1390911A03892F97FB87F98058B4CF81E0ACCF81E021CFCF93DF93EB0186310D
:201DE0009C4511F50E945E199A81992399F08A7A91E009F490E09093A301811109C089E214
:201E00000E9439190E94AA1980E0DF91CF91089585E3F6CF8091A301811104C089E20E9457
:201E20004019F0CF85E3FBCF81E0EFCF089508958091B101811114C00E94160F81E080939B
:201E4000B1010E947D1B9093B0018093AF011092A401E5EAF1E08AE0DF011D928A95E9F720
:201E600008951F93CF93DF93EC01FB011281111106C011E0812FDF91CF911F91089580910C
:201E8000B101882381F18091AF019091B0010E94951B8A3F910568F7CE0190568115F0E2B3
:201EA0009F0720F0905E8115904108F4DD278091A401853098F4E82FF0E0EE0FFF1FEB55DE
:201EC000FE4FD183C0838F5F8093A4010E947D1B9093B0018093AF0110E0CCCF1092B101C8
:201EE0000E94170FF3CFC731DC4519F60E94180FC1CF9093B7018093B6010895E091B6016D
:201F0000F091B701309721F00190F081E02D099480E00895E091B601F091B701309721F0CE
:201F20000280F381E02D09940895E091B601F091B701309739F022E0DC012C930480F5817B
:201F4000E02D099408952091B4013091B5012817390771F09093B5018093B401E091B601B4
:201F6000F091B701309721F00680F781E02D099408952091B2013091B3012817390771F052
:201F80009093B3018093B201E091B601F091B701309721F00084F185E02D0994089508958D
:201FA00008950C94CF0F08950C94D30F0E94D00F0C94D10F81E008950C94DA0F0895089525
:201FC0000E94741B0E94BD080E94640A0E94F31B0E9499090C94D40FBF92CF92DF92EF923E
:201FE000FF920F931F93CF93DF93CDB7DEB72A970FB6F894DEBF0FBECDBF0E94DE0F0E94D6
:20200000DF0F0E94EB080E94DC0F882309F461C089EBC82E81E0D82E10E000E0B02E802FB9
:202020000E949B08E82EF601F1906F01F81609F44AC080913F0281FD0E94A1089F2D9E259E
:2020400080E0FF24F394292F2F21C1F18E83BF82EF2081E009F480E088870E947D1B8160D3
:20206000782F9A8789874E815F8168858A850E948A10F801E754FE4F8081F826F0820E94ED
:20208000A8090E949E1D0E947E0F9091B801891789F10E947E0F8093B8012A960FB6F89403
:2020A000DEBF0FBECDBFDF91CF911F910F91FF90EF90DF90CF90BF900C9492068F5FFF0CAE
:2020C000863009F0C0CF0F5F1F4F0B30110509F0A5CF8FEF89838A831B820E947D1B8160D9
:2020E000782F9D838C8349815A816B818D810E948A10C5CF2A960FB6F894DEBF0FBECDBF94
:20210000DF91CF911F910F91FF90EF90DF90CF90BF900895CF93DF93CDB7DEB72B970FB663
:20212000F894DEBF0FBECDBF4F83588769877A878B871E821D8285E0FE013796DE01119673
:2021400001900D928A95E1F749815A816B817C818D819E812B960FB6F894DEBF0FBECDBF95
:20216000DF91CF910C945216FC01808191810C940B19CF93C82F882309F447C08CEF8C0F95
:20218000813AA0F46C2F80910001909101010E941D1B882329F08C2F0E9440190E94AA1967
:2021A0008C2F0E943919CF910C94AA1980E28C0F883048F4C77081E001C0880FCA95EAF78C
:2021C0000E946119F0CFEBE5EC0FE33040F4F0E0EA56FE4F808190E0CF910C94A30FE8E5C5
:2021E000EC0FE73150F4F0E0EE0FFF1FE859FE4F80819181CF910C94B90FC03F30F08C2F5A
:202200000E94981CCF910C94831DCF910895882361F19CEF980F913A20F40E9440190C9422
:20222000AA1990E2980F983050F4877091E001C0990F8A95EAF7892F0E946719F0CF9BE5CC
:20224000980F933020F490E080E00C94A30F98E5980F973120F490E080E00C94B90F803FE7
:2022600020F00E94001D0C94831D0895CF93C82F0E94B910C93369F42FEF87EE93E021501E
:2022800080409040E1F700C000008C2FCF910C9407118FEF99EF0197F1F7F5CF882321F03D
:2022A0000E9461190C94AA190895882321F00E9467190C94AA190895BF92CF92DF92EF9280
:2022C000FF920F931F93CF93DF936C01D62FC72FFC01058102950F70128111110E947E1956
:2022E0000E945719E82E882391F01123D1F08C2F807F803421F080E28D0F883090F082E07E
:202300000E94F5190E94571991E0E82EE926BC2EB2949FE0B922EB2DF0E0EC54FD4D0C94C9
:202320003C22E12CF4CF0C2F0F70C07F11F00295007F1123A9F0002359F080E28D0F883070
:2023400010F0D11109C0802F0E9461190E94AA198D2F0E94B91014C0802F0E947119F6CF07
:202360008D2F0E940711002359F080E28D0F883010F0D1112BC0802F0E9467190E94AA19C2
:20238000EB2DE850FF0B349720F40E947E0F0E949206EE2009F4A3C10E94531980FD9FC141
:2023A000F60112820E944D190E94D617C6010E9490130E944D19DF91CF911F910F91FF9038
:2023C000EF90DF90CF90BF900C94F717802F0E947719D4CFFC2FFF70FF2EC07FC03219F02E
:2023E000F29480EFF822DD2369F0D13049F1112391F1002351F1F601858180FFA9CF8F702C
:20240000858323C0112381F0011106C00E9491198F290E944E11B4CF0130C1F70E94911997
:202420008F290E949719ACCF011106C00E94A0198F2D0E945511A4CF013009F4A1CFF6CF4A
:20244000112329F0063008F09BCF8F2DE2CF053008F096CFEDCF002359F3D93309F027C180
:20246000FFEF27EE33E0F15020403040E1F700C000008D2F0E94071183CF8C2F86958695E4
:20248000837069F0813009F07BCF8D2F9C2F9370111102C090E080E00E94B90F71CF8D2F58
:2024A0009C2F9370111102C090E080E00E94A30F67CF8D2F112329F00E94981C0E94831D6F
:2024C0005FCF0E94001DFACF8C2F837009F041C0111156CF4D2F429546954770440F440FCC
:2024E0000D2F0F7010E030E020E0042E04C0000F111F221F331F0A94D2F760E070E0CB0196
:20250000D4FF0FC06FE070E080E090E004C0660F771F881F991F4A95D2F7609570958095C5
:202520009095C695C695C370602B712B822B932BC23049F058F4C13019F00E94881720CF5A
:202540000E9476171DCF0E949A171ACF0E94741717CF8695112311F08C2F8170882309F46D
:202560000FCF4D2F429546954770440F440F0D2F0F7010E030E020E0042E04C0000F111F02
:20258000221F331F0A94D2F760E070E0CB01D4FF0FC06FE070E080E090E004C0660F771F05
:2025A000881F991F4A95D2F76095709580959095C695C695C370602B712B822B932BC23073
:2025C00049F058F4C13019F00E944D18D9CE0E943B18D6CE0E945F18D3CE0E94B017D0CE74
:2025E000CF70112329F08C2F0E94D6178D2F11CF8D2F0E9455118C2F0E94F717C1CED23F9A
:2026000089F160F4D03FC9F0D13F29F1112309F442C001119DCE8C2F8F7121C0D33F39F172
:20262000D43FA1F7112369F1CF718C2F0E94D61763E08C2F0E94E019A3CE112341F0053033
:2026400008F09ECE8C2F8F710E941A1899CE063008F096CEF7CF8C2F8F71112369F20E94DC
:20266000D6178ECE8C2F8F711123C9F3C5CF112329F08C2F8F710E94C11782CE0E94BC178B
:202680007FCE81E00E94F519023008F479CE82E00E94F51975CE002379F0D93341F49FEFB7
:2026A000E7EEF3E09150E040F040E1F7E0CE8FEF99EF0197F1F7DBCE8C2F8F719DCF4C2FEA
:2026C0004F706D2FC6010E949A060E94EC1658CE4C2F4F706D2FC6010E949D0651CEDF915B
:2026E000CF911F910F91FF90EF90DF90CF90BF9008950F931F93CF93DF93EC01688179816A
:202700008A810E9415198C010E9471180E947317B801CE01DF91CF911F910F910C945C1145
:20272000CF93DF93EC018B819C81892B29F08881998189238F3F59F4DF91CF910895CE01BC
:202740000E947913CE01DF91CF910C94FF04CE010E9443068111F3CF0E945719882361F3EA
:202760008A81882349F382E0DF91CF910C94F519882321F00E9471190C94AA1908958823F4
:2027800021F00E9477190C94AA1908950E947E190E948E190E94AA190E94AA1E0E94831D63
:2027A00090E080E00E94A30F90E080E00C94B90F0E9447190C94C6130E946E190C94D8138E
:2027C000E92FE295EF70E250EE3070F4F0E0EC53FD4D0C943C22803F19F020F4883E20F44A
:2027E00081E00895843FE1F380E00895883EC0F3813FD1F7F5CF93FB882780F908950E948D
:202800000B190C94E013CF93DF9300D000D00F92CDB7DEB70F900F900F900F900F90DF9148
:20282000CF910895CF93DF9300D000D000D0CDB7DEB726960FB6F894DEBF0FBECDBFDF91CB
:20284000CF9108951F93CF93DF93C091C50116E08091C6018C1304C0DF91CF911F91089590
:20286000D0E01C9FF0011D9FF00D1124E953FE4F4081518162817381848195810E94121438
:202880002196C770E5CF4091F7015091F8016091F9017091FA018091FB019091FC010C9441
:2028A00012141F93CF93DF938091FC01807FA9F48091F901882389F08091C501C091C601A4
:2028C0006091F7017091F801A091FA01B091FB01D62FD72316E0C81304C0DF91CF911F9198
:2028E000089590E0109711F0DF3F19F401968770F2CF189F9001199F300D1124F901E95301
:20290000FE4F41814713F2CF40814613EFCF42814111ECCF438154814A1B5B0B483C5105A7
:2029200028F78091FC018F7080618093FC01F901E453FE4F80818F708061808387EF91E031
:202940000E949013DF91CF911F910C942214AF92BF92CF92DF92EF92FF920F931F93CF93B0
:20296000DF93CDB7DEB761970FB6F894DEBF0FBECDBF8C0185E0F801DE011D9601900D92E0
:202980008A95E1F7F80140815181E28087EFC82E81E0D82E6091FA017091FB0161157105AA
:2029A00009F461C19091F7012091F801892F82238F3F09F458C1A380B480F090F901F5012D
:2029C000E61BF70BFF2009F4FCC08091FC01382F307FE83CF10508F0B2C0311179C0FE2CCF
:2029E000251323C0941321C0E1101FC08F7080618093FC010E944314C6010E94901380915E
:202A0000FC01F80185838F2D61960FB6F894DEBF0FBECDBFDF91CF911F910F91FF90EF9090
:202A2000DF90CF90BF90AF900895AB2829F0842F85238F3F09F033C180E0F82FF170DF2EA6
:202A400080FF3CC08091C5012091C60136E0821315C04D875E878D859E850E940B19292F20
:202A600022952F702230F0F0243018F59F70F1F0F8019581907FD1F4D12C1EC090E0389F78
:202A8000F001399FF00D1124E953FE4F6181651306C06081641303C062816E110FC00196AF
:202AA0008770D5CF9F7011F0882331F3805E883018F3C8010E949013FD2CA5CFEE2009F445
:202AC000A2CF8091FC0181608093FC01F12C9BCF251306C0941304C0F801EE2009F48DC045
:202AE0004D875E878D859E850E94FF13882319F1EE2009F18091FC01803270F02091F701AE
:202B00003091F80138872F831986BB86AA868C87CE0107960E94901386E0F801A7EFB1E030
:202B200001900D928A95E1F70E9451140E944314FF24F39468CFC8010E949013F9CF311175
:202B400013C07A2DB98AA88A6E2D89890E94031487EF91E00E94901386E0F60111928A95D5
:202B6000E9F70E944314B2CF25130FC094130DC0E1100BC0F8018583C8010E94901386E04F
:202B8000F60111928A95E9F73ECF4D875E878D859E850E94FF13882371F2EE2061F280916D
:202BA000FC01803208F4B8CF2091F7013091F8013A8329831B82BD82AC828E83CE01019696
:202BC000A9CFE83CF10508F041C0FE2CEE2009F4B2CF25132AC0941328C08091FC0180FD78
:202BE0001BC0982F907FC1F0F8018583903F31F0982F907F905F8F70892B8583C8010E9497
:202C0000901386E0F801A7EFB1E001900D928A95E1F70E944314F7CE86E0F801A7EFB1E020
:202C200001900D928A95E1F7EECE4D875E878D859E850E94FF1381116FCF8091FC01816050
:202C40008093FC01C8010E949013DDCE7A2DB98AA88A6E2D89890E94031486E0F601119229
:202C60008A95E9F7D6CFEE2009F465CF4D875E878D859E850E94FF13F82E882309F45BCFD7
:202C800086E0F801A7EFB1E001900D928A95E1F787EF91E00E94B4100E945114BACF81E049
:202CA0008E25CBCE1F93CF93DF93CDB7DEB72C970FB6F894DEBF0FBECDBF4F83588769877E
:202CC0007A878B879C87CE0107960E94A714882369F08A859B85892B39F04F815885842F85
:202CE00085238F3F09F071C016E05FC086E0FE013796DE01119601900D928A95E1F78A8531
:202D00009B85892B89F38F81988589238F3F61F32091C60130E0C9010196877099274091F7
:202D2000C5014817190671F40E94DC131092C6011092C50186E0E7EFF1E0DF011D928A95CD
:202D4000E9F7D2CF96E0929FD001939FB00D1124A953BE4FFE01319601900D929A95E1F750
:202D60008093C6010E942214BFCF819FC001112489539E4F0E94A7148823E9F0E091C5011C
:202D80001E9FF0011124E953FE4F4081518162817381848195810E9412148091C50190E033
:202DA0000196877099278093C5018091C5019091C6018913DACF2C960FB6F894DEBF0FBE6B
:202DC000CDBFDF91CF911F91089569857A858B859C850E94121488CFEF92FF920F931F93A7
:202DE000CF93DF938C01892B81F0F12CEE24E394E8012196F8018491843770F4843008F02E
:202E00005FC08130B1F08230A1F1DF91CF911F910F91FF90EF900895853709F44CC008F471
:202E20003DC09CE7980F903780F78F770E94071149C00E5F1F4FFE01849190E2980F983094
:202E400060F48770FE2D01C0FF0F8A95EAF78F2F0E9481190E94AA1902C00E94B9108F2DE5
:202E6000815030F2EFE9FFE03197F1F700C00000F7CF0E5F1F4FFE01849190E2980F9830A2
:202E800050F48770FE2D01C0FF0F8A95EAF78F2F0E948719DFCF0E940711E1CF0E5F1F4F0A
:202EA000FE01C491C150D8F28FE99FE00197F1F700C00000F7CF0E5F1F4FFE01F490CFCFEA
:202EC0000E94B9108E01CBCF08950C9464170E94651760932E0270932F02809330029093C9
:202EE00031020C94C61308950C9467170F931F9300912E0210912F022091300230913102AD
:202F0000602B712B822B932B1F910F910C9467170F931F9300912E0210912F0220913002E7
:202F20003091310260237123822393231F910F910C9467170F931F9300912E0210912F02D6
:202F4000209130023091310260277127822793271F910F910C9467170C9464170C94AC172C
:202F60000E94AE1760932A0270932B0280932C0290932D020C94C61360E070E0CB010C9493
:202F8000B0170F931F9341E050E060E070E08A019B0104C0000F111F221F331F8A95D2F790
:202FA000C901B8011F910F910C94B0170F931F9341E050E060E070E004C0440F551F661F92
:202FC000771F8A95D2F780912A0290912B02A0912C02B0912D028A019B01082B192B2A2B26
:202FE0003B2BC901B8011F910F910C94B0170F931F9341E050E060E070E004C0440F551F71
:20300000661F771F8A95D2F7CB01BA01609570958095909500912A0210912B0220912C0288
:2030200030912D0260237123822393231F910F910C94B0170F931F9341E050E060E070E042
:2030400004C0440F551F661F771F8A95D2F780912A0290912B02A0912C02B0912D028A01FD
:203060009B01082719272A273B27C901B8011F910F910C94B0170F931F9300912A021091A6
:203080002B0220912C0230912D02602B712B822B932B1F910F910C94B0170F931F93009106
:2030A0002A0210912B0220912C0230912D0260237123822393231F910F910C94B0170F937C
:2030C0001F9300912A0210912B0220912C0230912D0260277127822793271F910F910C9472
:2030E000B0170895E92FEE0FE90FEE0F8E0F982F977041E001C0440F9A95EAF7869586957C
:20310000869595E0899FF0011124E350FE4F30E020E070E05191DF011197CB01022E02C0C9
:20312000969587950A94E2F7817081958527842385278C932F5F3F4F2530310559F7089518
:20314000E92FEE0FE90FEE0F8E0F982F977086958695869525E0829FF0011124E350FE4FDD
:2031600050E040E080E0219130E0092E02C0369527950A94E2F721703327042E01C0220FD7
:203180000A94EAF7822B4F5F5F4F4530510559F70895BF92CF92DF92EF92FF920F931F9366
:2031A000CF93DF938C01C0902A02D0902B02E0902C02F0902D0280912E0290912F02A09194
:2031C0003002B0913102C82AD92AEA2AFB2ACFE1D0E0BC2ED701C6010C2E04C0B695A795AD
:2031E000979587950A94D2F780FD0EC0219788F7B12C8B2DDF91CF911F910F91FF90EF90DB
:20320000DF90CF90BF900895B8018C2F0E94A606019761F3EECFCF93DF93EC010E94C91845
:20322000BE01DF91CF910C94A6061F93CF93DF93EB019091C401992331F0CB01DF91CF91E2
:203240001F910C940B19882379F0CB010E94C918182F682FCE010E947218BE01812FDF91DF
:20326000CF911F910C94A606CB010E94A018182FF4CF682F80910001909101010C94531BE8
:20328000682F80910001909101010C94551B80910001909101010C94571B809132028595AC
:2032A000859585950895809132028770089590913202977081E009F480E0089580913E025C
:2032C000089590913E02892B80933E020895809590913E02982390933E02089510923E0239
:2032E000089590913D02892B80933D020895809590913D02982390933D02089510923D021E
:20330000089590913C02892B80933C020895809590913C02982390933C02089510923C0202
:20332000089580913302089508950C94941990913302981721F0809333020C9495190895DA
:2033400080913302882329F01092330280E00C9495190895E0910001F091010180913E02FB
:203360008083E0910001F0910101808190913D02892B8083E0910001F09101018081909126
:203380003C02892B808390913302992381F0E0910001F09101018081892B808380910001F6
:2033A000909101010E940B1B81110E94A01980910001909101010C948A0F08950C94DD1994
:2033C00098E0899F90011124622B609332020E94D617809132028595859585950C94DE191A
:2033E0001092320280E00C94DE19909132028095892380933202282F277071F4282F082EC3
:20340000000C330B9217130639F08595859585950E94F7170C94F0190895CF92DF92EF92E0
:20342000FF926C01EE24FF2420E0C114D104E104F10419F0C701B60120E1C72ED82EE92E3A
:20344000FF24C114D104E104F10419F0285FC701B6016B017C0154E0F694E794D794C794CE
:203460005A95D1F7C114D104E104F10419F02C5FC701B6016B017C0142E0F694E794D79483
:20348000C7944A95D1F7C114D104E104F10419F02E5FC701B6019695879577956795672BB0
:2034A000682B692B09F02F5F822FFF90EF90DF90CF9008956FEF7FEF90E080E00C9489224D
:2034C00090E080E00E94652221E08C3E9E4F09F020E0822F089582E090E00C945D2283E0A0
:2034E00090E00C945D22CF9384E090E00E945D22C82F81E290E00E945D22982F8C2FCF9119
:203500000895CF93C92F682F84E090E00E946B226C2F81E290E0CF910C946B22AB01BC01B6
:203520008FE090E00C947D22AB01BC0183E190E00C947D2260E070E0CB010C94941A60E007
:2035400070E0CB010E948E1A0C949A1A6CEE7EEF90E080E00E94892260E082E090E00E9419
:203560006B2260E083E090E00E946B2210922E0210922F02109230021092310260E084E08A
:2035800090E00E946B2260E081E290E00E946B2260E085E090E00E946B2260E086E090E0F0
:2035A0000E946B226FEF87E090E00E946B2240E050E0BA0188E090E00E947D2260E08DE0A7
:2035C00090E00E946B2240E050E0BA0188E190E00E947D2260E087E190E00E946B2240E0C0
:2035E00050E0BA018CE190E00E947D2260E080E290E00E946B2240E050E0BA0188E190E09D
:203600000E947D220C949F1A0C94A61A682F8EE090E00C946B229C012E5F3F4FAC01485F02
:203620005F4F80E02417350709F40895F90191919F019923B9F38F5FF5CF662349F0FC01D6
:20364000329608962191261729F0E817F907D1F780E0089581E008959C01FC0132969FEF4A
:2036600080E04191461751F09F3F19F4411101C0982F8F5F8630A9F79F3F09F40895290FC1
:20368000311D97FD3A95F90162830895FC01329608962191261303C0DF0111971C92E817B7
:2036A000F907B9F708950C942C1B0C94461B029626E0FC0111922A95E9F708950895089521
:2036C000CF930E945E1B0E94EB080E945F1BC0E08C2F0E949B08811105C0CF5FCB30C1F7E4
:2036E000CF91089581E0FCCF82E084BD93E095BD9AEF97BD80936E0008952FB7F8948091BB
:20370000160390911703A0911803B09119032FBF08952FB7F8946091160370911703809179
:203720001803909119032FBF08959C014FB7F8948091160390911703A0911803B091190369
:203740004FBF821B930B089578941F921FB61F9211248F939F93AF93BF93809116039091D8
:203760001703A0911803B09119030196A11DB11D8093160390931703A0931803B09319034D
:20378000BF91AF919F918F911F901FBE1F90189588E198E00FB6F894A895809360000FBEB2
:2037A00090936000A895F894D8E0CEEF28E3299320E0299314BEFFCF08950C941C0A0E9420
:2037C000EB088FE39CE90197F1F700C000000E94EB0880E00E949B0880FF04C00E94DD1BA8
:2037E0000C94C81B08950E94601A811102C00E94041B0E946B1A80933F020E94731A9093AB
:203800001B0380931A030E946F1A682F70E090E080E00E94741760912A0270912B028091EF
:203820002C0290912D020C94AE178091460280FF12C06091070185E0689FB00111247595A6
:2038400067957595679560387105A8F561157105A1F1862F089581FF09C06091070185E044
:20386000689FB001112475956795EDCF6091070182FD0AC0809145028823D1F0909106016B
:2038800060910701891728F085E0689FB0011124DACF869FB001112485E0869F9001879F30
:2038A000300D1124692F70E0C9010E942822CBCF65E070E0CECF8FE7089581E0089580910A
:2038C000460280FF0CC06091030170E075956795759567956115710549F1862F089581FF0C
:2038E00006C06091030170E075956795F3CF6091030182FD0BC0909144029923A1F0609111
:20390000020180910301961738F0682F70E06038710500F38FE70895899FC001112470E051
:203920000E942822F4CF61E070E0D7CF81E00895803F31F40E94151C819580934A020895DA
:20394000813F19F40E94151CF8CF823F31F40E94151C8195809349020895833F19F40E94C5
:20396000151CF8CF893F29F40E945F1C80934B0208958A3F21F40E945F1C8195F7CF8B3FAF
:2039800031F40E945F1C819580934C0208958C3F19F40E945F1CF8CF843F31F480914802D2
:2039A0008160809348020895853F21F4809148028260F7CF863F21F4809148028460F1CF77
:2039C000873F21F4809148028860EBCF883F21F4809148028061E5CF8D3F31F480914602F9
:2039E00081608093460208958E3F21F4809146028260F7CF8F3FB9F7809146028460F1CF90
:203A000090914902803F59F480914A0287FF0DC010924A0291110BC01092450208C0813FB2
:203A200081F480914A0218169CF3992381F080914B0290914C02892B09F064C01092440244
:203A40000895823F49F497FFF0CF1092490280914A028111ECCFE0CF833F19F41916ACF393
:203A6000E4CF20914B02893F29F41216F4F610924B02DBCF8A3F19F427FFD7CFF8CF2091EB
:203A80004C028B3F29F427FFD0CF10924C02CDCF8C3F19F41216CCF3C8CF843F31F4809151
:203AA00048028E7F80934802C0CF853F21F4809148028D7FF7CF863F21F4809148028B7F7E
:203AC000F1CF873F21F480914802877FEBCF883F21F4809148028F7EE5CF8D3F31F4809136
:203AE00046028E7F80934602A0CF8E3F21F4809146028D7FF7CF8F3F09F097CF8091460214
:203B00008B7FF0CF08950E947D1B9C019091490280914A02982B21F03093430220934202CC
:203B200090914B0280914C02982B21F0309341022093400287E492E00C94950FEF92FF92B6
:203B40000F931F93CF93DF9300D000D000D0CDB7DEB786E0E7E4F2E0DE01119601900D92FB
:203B60008A95E1F7E0904902F0904A0200914B0210914C021092490210924A0210924B0230
:203B800010924C028E2D8F2991F080914202909143020E94951BAC0190914502992309F466
:203BA0003FC0809108018417150608F447C0802F812B91F080914002909141020E94951B4E
:203BC000AC0190914402992309F477C0809104018417150608F47FC08091490290914A0211
:203BE000892B90914B02892B90914C02892B11F00E94831D86E0FE013196A7E4B2E00190AF
:203C00000D928A95E1F726960FB6F894DEBF0FBECDBFDF91CF911F910F91FF90EF90089540
:203C2000209109018AE0289F900111242417350708F0BDCF9F5F9093450202C09F3FD1F707
:203C4000EE2059F00E94151C9FEF1E140CF491E0899F802D112480934902FF2059F00E9497
:203C6000151C9FEF1F140CF491E0899F802D112480934A0230914902332309F498CF209101
:203C80004A02222309F493CF45EB3403C0011124992359F09093490245EB24039001112447
:203CA000332339F030934A0282CF81E080934902F3CF81E080934A027ACF209105018AE07A
:203CC000289F900111242417350708F085CF9F5F9093440202C09F3FD1F7002359F00E94B7
:203CE0005F1C9FEF10160CF491E0899F802D112480934B02112359F00E945F1C9FEF11166B
:203D00000CF491E0899F802D112480934C0230914B02332309F460CF20914C02222309F4F6
:203D20005BCF45EB3403C0011124992359F090934B0245EB240390011124332339F0309328
:203D40004C024ACF81E080934B02F3CF81E080934C0242CF86E0E7E4F2E0DF011D928A95F5
:203D6000E9F710924502109244021092460208950E947D1B8C0180E890E00FB6F894809308
:203D80006100909361000FBE0E94D60F0E940D22539A80E08150D1F5539878940E94E00FAD
:203DA0000E9404200E94790FFFEF20E732E0F15020403040E1F700C00000C0E0DCE08091F6
:203DC0004303882369F1109243030E947D1B8C010E941D2180914903882329F080912703AD
:203DE00084FD0E94EC0F0E94711F0E941D2180914903882329F08091600384FD0E94F81FC4
:203E00000E94DE0F0E94DF0FC0E0D9CFA895EFE9FFE03197F1F700C00000BCCFC1E0CFCF0D
:203E2000C8010E94951B069710F4CC2389F20E94601BC82F882391F3F8949AB15B9A892F95
:203E40008C608AB98BB18D278BB98FE7E8E3F1E08150E040F040E1F700C000008BB18D2744
:203E60008BB99AB95B987894AACF8091FF020895CF93DF9300D00F92CDB7DEB790914F02B4
:203E8000981307C020914D0230914E022617370791F080934F0270934E0260934D0289839E
:203EA0007B836A838091600384FF05C063E0CE0101960E9415210F900F900F90DF91CF912D
:203EC0000895BC0184E00C94381FBC0183E00C94381F2091600324FF03C066E00C94152100
:203EE0000895CF93DF93CAE0D0E08091270384FF1AC080917C0290917D02981789F028E000
:203F0000829FC001112468E082589D4F0E94112180917C0290E001968F70992780937C02C2
:203F2000DF91CF9108950E941D218FE99FE00197F1F700C000002197C1F6F2CFCF93DF93F9
:203F4000EC01A0917D02B0E0CD0101968F70992720917C02281779F093E0AA0FBB1F9A9504
:203F6000E1F7A258BD4F98E0FE0101900D929A95E1F780937D020E941D210E94711F88E0A9
:203F8000FE01A4E7B2E001900D928A95E1F7DF91CF9108950F931F93CF93DF93EC016032CA
:203FA00011F58C01005E1F4F02C00E941D218091330384FFFACF68E0CE010E9419212896BC
:203FC000C017D107A1F78091330384FF09C060E090E080E0DF91CF911F910F910C941921FD
:203FE0000E941D21F0CFDF91CF911F910F91089580915302803239F460E284E592E00E9461
:20400000B30A1092530208958AE091E00895FC01808180768032F1F48181813061F484813F
:204020009581892BB9F484E792E0909345038093440388E00895823041F48EEF92E0909369
:2040400045038093440381E008958A3029F483818093FE0280E008958930E1F7828193812D
:204060008115924069F484819581892B49F481E080935202868197819093510280935002AD
:204080008FEF0895FC018091500290915102892B61F080915202813041F490819093FF02AC
:2040A000109251021092500208958FEF0895683019F0109253020895209153022931C8F70B
:2040C000FC01A22FB0E0AC5ABD4F089631913D93E817F907D9F7285F209353020895FC0148
:2040E0008381833089F130F48130F1F0823021F180E00895813209F446C08232C9F7248149
:2041000035812130310509F45CC02115310509F450C02230310561F78FE494E0909345039E
:204120008093440381E8089587EF93E0909345038093440382E108958CE993E0909345031E
:20414000809344038BE5089582818130A1F0882351F0823069F689E094E09093450380935B
:20416000440384E1089589E294E0909345038093440384E008958FE194E0909345038093EF
:20418000440388E008958281813081F0882331F0823009F0ADCF87EE93E002C08EEA93E026
:2041A000909345038093440389E0089587EC93E0F7CF80ED94E0909345038093440380E47E
:2041C00008952DE234E0309345032093440308951F93CF93DF93E82F792F162FEA018881FF
:2041E00084FF1CC0298188E828272983CE010296DC012E2F372F512F5E0FF90121912D93EB
:204200009F01452F4E1B1416C4F3612F0E94E6021C5F1883DF91CF911F9108958AE5888379
:20422000E5CF47E253E00C94E82040E653E00C94E82043E353E00C94E820CF93DF936091FF
:204240004603635067FD12C080914203CCE0D0E0C81BD109C65BDC4F80914103803108F073
:2042600054C0CE010E945720109246038091150184FF3EC0809114018F3FD1F1C82F893049
:2042800008F0C8E0982F9C1B9093140190911C0328E8922790931C038823E9F080914403A1
:2042A000909145032091400326FFAEC0FC012C2FADE1B3E034913D9331962150D9F79C015B
:2042C0002F5F3F4F8FEF8C0F820F932F911D90934503809344036C2F8DE193E00E94E602DD
:2042E000CC5FCC3019F08FEF80931401C093150184E199B19C7031F48150D9F71092470312
:2043000010923F03DF91CF9108958D3209F069C0683009F0A9CF83EC80931C038AE580933F
:204320001501109240038881807671F0CE010E9407208F3FC1F4988197FD8E8190E89093B0
:2043400040038093140190CF2A81109225039981911111C01092260325E233E082E0309387
:204360004503209344039F819111EBCF9E81981740F7892FE6CF953029F42093470325E227
:2043800033E0EDCF963099F49B81913021F4CE010E946F2008C09230D1F39330C1F3913281
:2043A000B1F39232A1F390E490934003C2CF983089F0993019F420934903E1CF9A3071F0A5
:2043C0009B30E9F69BE4909328039093610390933403D5CF29E433E081E0C1CF25E233E0B6
:2043E000FBCF8091400387FF3FCFCE010E9442208F3F21F48EE18093150136CF882309F410
:2044000033CF1092140130CFDC012C2FEDE1F3E03D9131932150E1F752CFCF93DF93E9E66C
:20442000F0E0808188608083E99AC7E2D3E08BE48983A0E6B3E011968C931197E3E3F3E046
:2044400081838AE588838C938083DF91CF91089597FB072E16F4009407D077FD09D00E9424
:20446000492207FC05D03EF4909581959F4F0895709561957F4F0895EE0FFF1F0590F49166
:20448000E02D09946927962769277827872778270895AA1BBB1B51E107C0AA1FBB1FA61718
:2044A000B70710F0A61BB70B881F991F5A95A9F780959095BC01CD010895F999FECF92BDBD
:2044C00081BDF89A992780B50895A8E1B0E042E050E00C949122262FF999FECF92BD81BD7B
:2044E000F89A019700B4021639F01FBA20BD0FB6F894FA9AF99A0FBE08950396272F0E9474
:204500006C220E946B22252F0E946C22242F0C946C220196272F0E946C220C946B22DC01B2
:20452000CB01FC01F999FECF06C0F2BDE1BDF89A319600B40D9241505040B8F70895F8949B
:20454000FFCFC50AD20AF90A050B100B1B0B1E0B1E0B1E0B670B6A0B210B250B2D0B3A0B53
:20456000470B4A0B4D0B5A0B93119311EA11EA113D125912C011C0116412F012FF12FF12A3
:204580005F13C011C0116813EB13EB13F413F413F613F413F413F413EB13EB13FB13F41353
:2045A000F413FB1334022808641E140A321E351F9E1F691F651F611FFF5AE200E900EA00E5
:2045C000B500B600B700CD008301CC008A01920194012102230224022502260227022A02D7
:2045E000B300B4006F007000818283606162636465303197329633953494350000FF01001B
:20460000010000FFFF0000010001FF00E200E900EA00B500B600B700CD008301CC008A011B
:20462000920194012102230224022502260227022A02B300B4006F00700081828300FFFF76
:20464000FFFFFFFFFFFFFFFFFFFFFFFFFFFFFFFFFFFFFFFFFFFFFFFFFFFFFFFFFFFFFFFF7A
:20466000FFFFFFFFFFFFFFFFFFFFFFFFFFFFFFFFFFFFFFFFFFFFFFFFFFFFFFFFFFFFFFFF5A
:20468000FFFFFFFFFFFFFFFFFFFFFFFFFFFFFFFFFFFFFFFFFFFFFFFFFFFFFFFFFFFFFFFF3A
:2046A000FFFFFFFFFFFFFFFFFFFFFFFFFFFFFFFFFFFFFFFFFFFFFFFFFFFFFFFFFFFFFFFF1A
:207000006BC00000AAC000008EC000008CC000008AC0000088C0000086C0000084C0000025
:2070200082C0000080C000007EC000007CC000007AC0000078C0000076C0000074C0000078
:2070400072C0000070C000006EC000006CC000006AC0000068C0000066C0000064C00000D8
:2070600062C0000060C00000EC2DFD2DB7B6B0FCFDCF27BFE895B7B6B0FCFDCF21E1B7B6EF
:20708000B6FCF4CF089509021200010100803209040000000000000012011001FF000008D5
:2070A000C016DC050201010200010E035500530042006100730070001C037700770077004F
:2070C0002E00660069007300630068006C002E00640065000403090411241FBECFEFD8E076
:2070E000DEBFCDBF24B7D8E0CEEF39913833399109F03FEF30933C0120933B0111E0A0E091
:20710000B1E0E4E8F8E702C005900D92A630B107D9F721E0A6E0B1E001C01D92AB33B207C0
:20712000E1F785D1ADC36CCFA82FB92F80E090E041E050EA609530E009C02D91822797952B
:20714000879510F084279527305EC8F36F5FA8F30895EADF8D939D930895CF93CFB7CF935D
:20716000DF93C3954B9BE9F74B9B0BC04B9B09C04B9B07C04B9B05C04B9B03C04B9B01C077
:2071800089C06F93C0911E01DD27CB5DDE4F2F9365E54B9B03C02F916F91E6CF0F931F935D
:2071A0004F9320E040E15F9309B10C7003FB27F93F9350E03BE039C01C7040642F77012F6A
:2071C0005F5F1EC0406819B11C702F7752501FC0406409B12F770C70D1F15F5F00C023C04B
:2071E000406219B12F771C7091F15F5F00C025C00C701027515012F45D5F000011502795D9
:207200002C3F19B1C8F61C700127015027952C3FC8F64227499309B10C7010274F731150BC
:2072200027952C3FA8F64695469519B11C7079F00127015027952C3F98F66B5A60F331504D
:2072400009B1B0F600C011E01CBB002717C03B503195C31BD04011E01CBB0881033CF9F090
:207260000B34E9F020911C011981110F1213EDCF093651F10D3211F0013E39F700932301A6
:207280003F915F914F911F910F912F916F91CCB3C0FD67CFDF91CF91CFBFCF9118952091B0
:2072A0002301222369F310912101112339F534303AF13093210120931D0110911E013BE0C4
:2072C000311B30931E011CC0009121010130B4F40AE53091010134FD14C000930101C1E12A
:2072E000D1E013C0052710E000C000000BB91AC0052710E0221F1DC010E021C04AE502C094
:2073000032ED432FC4E1D0E032E01AB11C605B9A0BB11AB95CE020E865E320FF05270BB90F
:20732000279517951C3FF0F66695B8F7B1F720FF05270BB9279517951C3FD0F62795179552
:2073400017FF052700001C3F0BB9B0F629913A9519F7037F10912201110FC651D0400BB93C
:2073600011F010931C0111E01CBB08601AB1137F402F437F54E05A95F1F70BB91AB94BB9E8
:207380007FCFDC0113964C91139714963C91149713968D919C9114979827892798271296FB
:2073A0002C911297203339F43370E32FF0E0EE5FFE4F80810895283561F489E0E1E0F0E07E
:2073C000442371F089E0E3E0F0E0483049F080E00895203579F4411107C089E0F0E0E0E067
:2073E000809357008491089589E0E2E0F0E0483071F7F6CF203229F4880F991FFC01849101
:207400000895283229F4FC01EE0FFF1F3196F7CF203A09F41FC2203C21F415966C9122D26E
:20742000D6CF2F3FA1F681EF80930F01D0CF1AB880E28BB981E085BF82E085BFE0E0F1E715
:20744000A89531978040E1F780913B01877F21F480913C01882371F04D9B0CC0F894539AA0
:207460001BB81DBA1092690081E085BF15BEF0E0E0E009958EEF80930F0114BE0FB6F894EE
:20748000A89580916000886180936000109260000FBE80916900826080936900E89A539ACC
:2074A0008CE0E0E0F5E3A89531978040E1F75398789410912101135017FD5AC080911E01B0
:2074C000CCE0D0E0C81BD109CB5DDE4F80911D018D3209F00BC1183009F048C083EC8093C0
:2074E00011018AE580930101109210013881832F80769981882309F49BC046E051E050938B
:20750000200140931F01933069F4CE013ADF8093090184E09F81911127C09E81981720F542
:20752000892F22C0953009F4DFC09A3009F4DCC08CEF890F863008F070C04A815B81509372
:207540000E0140930D01993009F46EC08E8180930C012D81227020930B0190930A0137FFB5
:207560008FEF90E89093100180930001109221018091010184FF36C0C0910001CF3F91F19B
:207580008C2FC93008F088E09C2F981B909300019091110128E8922790931101CC23B1F074
:2075A0004091100147FF2FC190910C01C82F981708F4C92F9C1B90930C01D0900A01D0E0E9
:2075C00082E1E82E81E0F82EDC1304C16C2F82E191E0BFDDCC5FCC3019F08FEF809300012A
:2075E000C093010184E199B19C7031F48150D9F71092220110921C0180910F01803108F463
:207600001EC14D9B05C080910F01805180930F0180910F0181114DCF21CF80910F01923027
:2076200029F48E7F80930F0180E074CF8160FACF2A8110921A0191110AC010921B012AE113
:2076400031E082E03093200120931F0163CF953029F4209322012AE131E0F4CF963099F5E3
:207660009B81913059F488E990E79093200180931F0182E190E4909310014CCF923019F48C
:2076800086E890E7F2CF9330A9F7211108C084ED90E79093200180931F0184E0EBCF213019
:2076A00041F488EB90E79093200180931F018CE1E1CF2230F9F68AEA90E790932001809394
:2076C0001F018EE0D7CF983059F0993019F420932401C1CF81E09A3009F4BDCF80E0BBCF89
:2076E00024E231E081E0AECF81E014CF8091100187FF3CCF00910C01011708F4102F011B91
:2077000000930C01F12CF11628F001112FCF109200012CCF80910D0190910E0120910A01D4
:20772000273058F069919C012F5F3F4F30930E0120930D0197D0F394E6CF8115904738F725
:20774000F394F394F894E0910D01F0910E012991399181E0090180935700E8951124789469
:2077600080910D0190910E01029690930E0180930D018F779927892B51F00111C4CFF11668
:2077800008F4C1CF80910B01882309F4BCCFF894E0910D01F0910E01329783E080935700DC
:2077A000E895789407B600FCFDCFF894E0910D01F0910E01329785E080935700E8957894FF
:2077C00007B600FCFDCFF89481E180935700E895789499CF00910D0110910E0126E02D1544
:2077E00078F4C80137D0F7018083FFEFEF1AFF0A0F5F1F4F10930E0100930D01DF5FE4CE33
:20780000F8018491F0CF90911F0130912001282F290FE92FF32FA2E1B1E046FF0BC0949166
:207820009D9331962E13FBCFF0932001E0931F01C82FCCCE91919D932E13FCCFF5CF4D9976
:20784000E7CE80910F01823008F4E2CE80910F018250DCCEF999FECF92BD81BDF89A992719
:2078600080B50895262FF999FECF1FBA92BD81BD20BD0FB6F894FA9AF99A0FBE01960895C6
:0A788000F894FFCFFF5A1E950F0089
:00000001FF
