:1000000033C0000044C0000042C0000040C00000F7
:100010003EC000003CC000003AC0000038C00000F4
:1000200036C0000034C0000032C0000030C0000004
:100030002EC000002CC000002AC0000028C0000014
:1000400026C0000024C0000022C0000020C0000024
:100050001EC000001CC000001AC0000018C0000034
:1000600016C0000014C0000011241FBECFEFD8E05E
:10007000DEBFCDBF11E0A0E0B1E0E4E6FCE002C0ED
:1000800005900D92A230B107D9F714D5E9C5B8CFC4
:10009000BF92CF92DF92D901E4E3F8E30F921F926F
:1000A000D72EC62EB82E242F1B2E0A2E09952131AD
:1000B000F9F71F900F90DF90CF90BF900895BF92F7
:1000C000CF92DF92D901E4E3FFE30F921F92D72E84
:1000D000C62EB82E242F1B2E0A2E09952131F9F792
:1000E0001F900F90DF90CF90BF900895CF93DF9334
:1000F000FA01E9012138310510F0C0E8D0E0AB0188
:10010000BC0140789E01CF01CCD4CE01DF91CF91CC
:1001100008952F923F924F925F926F927F928F92AB
:100120009F92AF92BF92CF92DF92EF92FF920F9386
:100130001F93CF93DF934801E9012138310510F077
:10014000C0E8D0E01E01369427946B017C0120E8C2
:10015000C2228A01DA0190E080E060E070E082155E
:10016000930571F5772309F454C0662339F030E024
:1001700020E043E0C701B601F401099526013701EB
:10018000B12CA12CA214B30491F530E020E045E09D
:10019000C701B601F4010995CE01DF91CF911F91FE
:1001A0000F91FF90EF90DF90CF90BF90AF909F9016
:1001B0008F907F906F905F904F903F902F90089519
:1001C000FC01EE0FFF1FEC0DFD1D259134914D91AB
:1001D0005D914217530749F040955095242B352BDC
:1001E00071E02F3F3F4F09F061E00196B8CFF80171
:1001F000219131918F0141E0C301B201F4010995D0
:10020000F2E04F0E511C611C711C2FEFA21AB20AB2
:10021000B9CFD0E0C0E0C0CF6BC00000AAC00000E2
:100220008EC000008CC000008AC0000088C00000A2
:1002300086C0000084C0000082C0000080C00000B2
:100240007EC000007CC000007AC0000078C00000C2
:1002500076C0000074C0000072C0000070C00000D2
:100260006EC000006CC000006AC0000068C00000E2
:1002700066C0000064C0000062C0000060C00000F2
:10028000EC2DFD2DB7B6B0FCFDCF27BFE895B7B676
:10029000B0FCFDCF21E1B7B6B6FCF4CF089509025A
:1002A000120001010080320904000000000000007B
:1002B00012011001FF000008C016DC050201010256
:1002C00000010E03550053004200610073007000EE
:1002D0001C037700770077002E006600690073002A
:1002E000630068006C002E006400650004030904CC
:1002F00011241FBECFEFD8E0DEBFCDBF24B7D8E0BA
:10030000CEEF39913833399109F03FEF30933C010A
:1003100020933B0111E0A0E0B1E0E4E8F8E702C07F
:1003200005900D92A630B107D9F721E0A6E0B1E023
:1003300001C01D92AB33B207E1F785D1ADC36CCFDD
:10034000A82FB92F80E090E041E050EA609530E0BE
:1003500009C02D9182279795879510F084279527BE
:10036000305EC8F36F5FA8F30895EADF8D939D9325
:100370000895CF93CFB7CF93DF93C3954B9BE9F706
:100380004B9B0BC04B9B09C04B9B07C04B9B05C0B5
:100390004B9B03C04B9B01C089C06F93C0911E0152
:1003A000DD27CB5DDE4F2F9365E54B9B03C02F917F
:1003B0006F91E6CF0F931F934F9320E040E15F933F
:1003C00009B10C7003FB27F93F9350E03BE039C0C3
:1003D0001C7040642F77012F5F5F1EC0406819B109
:1003E0001C702F7752501FC0406409B12F770C70DA
:1003F000D1F15F5F00C023C0406219B12F771C703C
:1004000091F15F5F00C025C00C701027515012F4AD
:100410005D5F0000115027952C3F19B1C8F61C7084
:100420000127015027952C3FC8F64227499309B16F
:100430000C7010274F73115027952C3FA8F6469546
:10044000469519B11C7079F00127015027952C3F72
:1004500098F66B5A60F3315009B1B0F600C011E064
:100460001CBB002717C03B503195C31BD04011E087
:100470001CBB0881033CF9F00B34E9F020911C010E
:100480001981110F1213EDCF093651F10D3211F010
:10049000013E39F7009323013F915F914F911F91E6
:1004A0000F912F916F91CCB3C0FD67CFDF91CF91AA
:1004B000CFBFCF91189520912301222369F310918A
:1004C0002101112339F534303AF130932101209381
:1004D0001D0110911E013BE0311B30931E011CC019
:1004E000009121010130B4F40AE53091010134FD9D
:1004F00014C000930101C1E1D1E013C0052710E051
:1005000000C000000BB91AC0052710E0221F1DC053
:1005100010E021C04AE502C032ED432FC4E1D0E033
:1005200032E01AB11C605B9A0BB11AB95CE020E8AA
:1005300065E320FF05270BB9279517951C3FF0F6BB
:100540006695B8F7B1F720FF05270BB927951795E2
:100550001C3FD0F62795179517FF052700001C3F75
:100560000BB9B0F629913A9519F7037F1091220142
:10057000110FC651D0400BB911F010931C0111E0BE
:100580001CBB08601AB1137F402F437F54E05A957B
:10059000F1F70BB91AB94BB97FCFDC0113964C9127
:1005A000139714963C91149713968D919C911497E0
:1005B00098278927982712962C911297203339F47F
:1005C0003370E32FF0E0EE5FFE4F80810895283511
:1005D00061F489E0E1E0F0E0442371F089E0E3E0D8
:1005E000F0E0483049F080E00895203579F4411179
:1005F00007C089E0F0E0E0E080935700849108951F
:1006000089E0E2E0F0E0483071F7F6CF203229F4DB
:10061000880F991FFC0184910895283229F4FC0168
:10062000EE0FFF1F3196F7CF203A09F41FC2203C8E
:1006300021F415966C9122D2D6CF2F3FA1F681EFEF
:1006400080930F01D0CF1AB880E28BB981E085BFCB
:1006500082E085BFE0E0F1E7A89531978040E1F7BF
:1006600080913B01877F21F480913C01882371F0C8
:100670004D9B0CC0F894539A1BB81DBA1092690098
:1006800081E085BF15BEF0E0E0E009958EEF809334
:100690000F0114BE0FB6F894A89580916000886190
:1006A00080936000109260000FBE809169008260AC
:1006B00080936900E89A539A8CE0E0E0F5E3A8950E
:1006C00031978040E1F753987894109121011350AD
:1006D00017FD5AC080911E01CCE0D0E0C81BD109A3
:1006E000CB5DDE4F80911D018D3209F00BC11830BA
:1006F00009F048C083EC809311018AE580930101E1
:10070000109210013881832F80769981882309F413
:100710009BC046E051E05093200140931F0193306D
:1007200069F4CE013ADF8093090184E09F81911141
:1007300027C09E81981720F5892F22C0953009F493
:10074000DFC09A3009F4DCC08CEF890F863008F0E6
:1007500070C04A815B8150930E0140930D01993026
:1007600009F46EC08E8180930C012D81227020933C
:100770000B0190930A0137FF8FEF90E890931001DF
:1007800080930001109221018091010184FF36C005
:10079000C0910001CF3F91F18C2FC93008F088E063
:1007A0009C2F981B909300019091110128E89227AB
:1007B00090931101CC23B1F04091100147FF2FC15C
:1007C00090910C01C82F981708F4C92F9C1B909387
:1007D0000C01D0900A01D0E082E1E82E81E0F82EF1
:1007E000DC1304C16C2F82E191E0BFDDCC5FCC3023
:1007F00019F08FEF80930001C093010184E199B15A
:100800009C7031F48150D9F71092220110921C0192
:1008100080910F01803108F41EC14D9B05C080916D
:100820000F01805180930F0180910F0181114DCFF5
:1008300021CF80910F01923029F48E7F80930F0198
:1008400080E074CF8160FACF2A8110921A01911151
:100850000AC010921B012AE131E082E030932001AE
:1008600020931F0163CF953029F4209322012AE1C0
:1008700031E0F4CF963099F59B81913059F488E9B5
:1008800090E79093200180931F0182E190E4909380
:1008900010014CCF923019F486E890E7F2CF9330F4
:1008A000A9F7211108C084ED90E79093200180936F
:1008B0001F0184E0EBCF213041F488EB90E7909367
:1008C000200180931F018CE1E1CF2230F9F68AEA02
:1008D00090E79093200180931F018EE0D7CF98304E
:1008E00059F0993019F420932401C1CF81E09A3056
:1008F00009F4BDCF80E0BBCF24E231E081E0AECF90
:1009000081E014CF8091100187FF3CCF00910C0152
:10091000011708F4102F011B00930C01F12CF116A4
:1009200028F001112FCF109200012CCF80910D01E2
:1009300090910E0120910A01273058F069919C0195
:100940002F5F3F4F30930E0120930D0197D0F3940A
:10095000E6CF8115904738F7F394F394F894E0913B
:100960000D01F0910E012991399181E009018093E7
:100970005700E8951124789480910D0190910E0113
:10098000029690930E0180930D018F779927892B02
:1009900051F00111C4CFF11608F4C1CF80910B01C1
:1009A000882309F4BCCFF894E0910D01F0910E0179
:1009B000329783E080935700E895789407B600FC5F
:1009C000FDCFF894E0910D01F0910E01329785E092
:1009D00080935700E895789407B600FCFDCFF89413
:1009E00081E180935700E895789499CF00910D01AB
:1009F00010910E0126E02D1578F4C80137D0F701CB
:100A00008083FFEFEF1AFF0A0F5F1F4F10930E0155
:100A100000930D01DF5FE4CEF8018491F0CF909157
:100A20001F0130912001282F290FE92FF32FA2E178
:100A3000B1E046FF0BC094919D9331962E13FBCFEE
:100A4000F0932001E0931F01C82FCCCE91919D938C
:100A50002E13FCCFF5CF4D99E7CE80910F01823058
:100A600008F4E2CE80910F018250DCCEF999FECFDE
:100A700092BD81BDF89A992780B50895262FF999DE
:100A8000FECF1FBA92BD81BD20BD0FB6F894FA9A71
:100A9000F99A0FBE01960895F894FFCFFF5A1E955C
:100AA0000F00FA01DC0102C005900D922150304088
:100AB000D8F70895CDB7DEB7C058D1090FB6F8946E
:100AC000DEBF0FBECDBF14BE0FB6F894A8958091BF
:100AD0006000886180936000109260000FBEF894FF
:100AE000209100013091010180E090E7F9016591CA
:100AF0007491FC01459154916417750709F494C0F1
:100B000081E0898398E6C92E90E7D92EE12CF12C5B
:100B1000B701A601407820E830E0CE010196C1DFA0
:100B2000C701B6016856724F8F4F9F4F08E410E01F
:100B300020E830E0AE014F5F5F4FEBDA80E8C80E8F
:100B4000D11CE11CF11C28E6C21622E7D206E10402
:100B5000F104F1F6C12C80E7D82EE12CF12C5601DE
:100B600040E7B41A40E850E06FEF70E0CE01019624
:100B700070D040910001509101014A0D5B1D052E7E
:100B8000000C660B770B20E830E0CE01019689DF80
:100B90000FE510E020E830E0AE014F5F5F4FC70186
:100BA000B601B7DAD701C60180589F4FAF4FBF4F8C
:100BB000811523E79207A105B10509F047C040E878
:100BC00050E06FEF70E0CE01019643D02AE838E0A4
:100BD0002A193B092138310510F020E830E0409116
:100BE0000001509101014A0D5B1D052E000C660BA2
:100BF000770BCE01019655DF08E410E020E830E0E5
:100C0000AE014F5F5F4FC701B60183DA40E8A40E23
:100C1000B11C80E8C80ED11CE11CF11C2AE8A21608
:100C200028E0B20660F208C02E5F3F4F02968A3875
:100C300048E7940709F05ACF90E080E0C058DF4FB2
:100C40000FB6F894DEBF0FBECDBF08956C017D01D5
:100C500086CFDC0101C06D9341505040E0F708950C
:040C6000F894FFCF36
:020C6400180274
:00000001FF
